{
  "_format": "hh-sol-artifact-1",
  "contractName": "Election",
  "sourceName": "contracts/election_init.sol",
  "abi": [
    {
      "inputs": [
        {
          "internalType": "string",
          "name": "_electionId",
          "type": "string"
        },
        {
          "internalType": "string",
          "name": "_data",
          "type": "string"
        }
      ],
      "stateMutability": "nonpayable",
      "type": "constructor"
    },
    {
      "inputs": [
        {
          "internalType": "uint256",
          "name": "",
          "type": "uint256"
        }
      ],
      "name": "blockchain",
      "outputs": [
        {
          "internalType": "uint256",
          "name": "index",
          "type": "uint256"
        },
        {
          "internalType": "string",
          "name": "electionId",
          "type": "string"
        },
        {
          "internalType": "bytes32",
          "name": "hash",
          "type": "bytes32"
        },
        {
          "internalType": "bytes32",
          "name": "previousHash",
          "type": "bytes32"
        },
        {
          "internalType": "string",
          "name": "data",
          "type": "string"
        },
        {
          "internalType": "uint256",
          "name": "timestamp",
          "type": "uint256"
        }
      ],
      "stateMutability": "view",
      "type": "function"
    }
  ],
  "bytecode": "0x608060405234801561001057600080fd5b50604051610af5380380610af5833981810160405281019061003291906102c3565b60008060001b905060004290506000610054600084868561011560201b60201c565b905060006040518060c001604052806000815260200187815260200183815260200185815260200186815260200184815250905060008190806001815401808255809150506001900390600052602060002090600602016000909190919091506000820151816000015560208201518160010190816100d3919061055c565b50604082015181600201556060820151816003015560808201518160040190816100fd919061055c565b5060a082015181600501555050505050505050610700565b60008484848460405160200161012e94939291906106b6565b604051602081830303815290604052805190602001209050949350505050565b6000604051905090565b600080fd5b600080fd5b600080fd5b600080fd5b6000601f19601f8301169050919050565b7f4e487b7100000000000000000000000000000000000000000000000000000000600052604160045260246000fd5b6101b58261016c565b810181811067ffffffffffffffff821117156101d4576101d361017d565b5b80604052505050565b60006101e761014e565b90506101f382826101ac565b919050565b600067ffffffffffffffff8211156102135761021261017d565b5b61021c8261016c565b9050602081019050919050565b60005b8381101561024757808201518184015260208101905061022c565b60008484015250505050565b6000610266610261846101f8565b6101dd565b90508281526020810184848401111561028257610281610167565b5b61028d848285610229565b509392505050565b600082601f8301126102aa576102a9610162565b5b81516102ba848260208601610253565b91505092915050565b600080604083850312156102da576102d9610158565b5b600083015167ffffffffffffffff8111156102f8576102f761015d565b5b61030485828601610295565b925050602083015167ffffffffffffffff8111156103255761032461015d565b5b61033185828601610295565b9150509250929050565b600081519050919050565b7f4e487b7100000000000000000000000000000000000000000000000000000000600052602260045260246000fd5b6000600282049050600182168061038d57607f821691505b6020821081036103a05761039f610346565b5b50919050565b60008190508160005260206000209050919050565b60006020601f8301049050919050565b600082821b905092915050565b6000600883026104087fffffffffffffffffffffffffffffffffffffffffffffffffffffffffffffffff826103cb565b61041286836103cb565b95508019841693508086168417925050509392505050565b6000819050919050565b6000819050919050565b600061045961045461044f8461042a565b610434565b61042a565b9050919050565b6000819050919050565b6104738361043e565b61048761047f82610460565b8484546103d8565b825550505050565b600090565b61049c61048f565b6104a781848461046a565b505050565b5b818110156104cb576104c0600082610494565b6001810190506104ad565b5050565b601f821115610510576104e1816103a6565b6104ea846103bb565b810160208510156104f9578190505b61050d610505856103bb565b8301826104ac565b50505b505050565b600082821c905092915050565b600061053360001984600802610515565b1980831691505092915050565b600061054c8383610522565b9150826002028217905092915050565b6105658261033b565b67ffffffffffffffff81111561057e5761057d61017d565b5b6105888254610375565b6105938282856104cf565b600060209050601f8311600181146105c657600084156105b4578287015190505b6105be8582610540565b865550610626565b601f1984166105d4866103a6565b60005b828110156105fc578489015182556001820191506020850194506020810190506105d7565b868310156106195784890151610615601f891682610522565b8355505b6001600288020188555050505b505050505050565b6000819050919050565b6106496106448261042a565b61062e565b82525050565b6000819050919050565b6000819050919050565b61067461066f8261064f565b610659565b82525050565b600081905092915050565b60006106908261033b565b61069a818561067a565b93506106aa818560208601610229565b80840191505092915050565b60006106c28287610638565b6020820191506106d28286610663565b6020820191506106e28285610685565b91506106ee8284610638565b60208201915081905095945050505050565b6103e68061070f6000396000f3fe608060405234801561001057600080fd5b506004361061002b5760003560e01c8063c25b1eaf14610030575b600080fd5b61004a600480360381019061004591906101fc565b610065565b60405161005c969594939291906102e1565b60405180910390f35b6000818154811061007557600080fd5b906000526020600020906006020160009150905080600001549080600101805461009e9061037f565b80601f01602080910402602001604051908101604052809291908181526020018280546100ca9061037f565b80156101175780601f106100ec57610100808354040283529160200191610117565b820191906000526020600020905b8154815290600101906020018083116100fa57829003601f168201915b5050505050908060020154908060030154908060040180546101389061037f565b80601f01602080910402602001604051908101604052809291908181526020018280546101649061037f565b80156101b15780601f10610186576101008083540402835291602001916101b1565b820191906000526020600020905b81548152906001019060200180831161019457829003601f168201915b5050505050908060050154905086565b600080fd5b6000819050919050565b6101d9816101c6565b81146101e457600080fd5b50565b6000813590506101f6816101d0565b92915050565b600060208284031215610212576102116101c1565b5b6000610220848285016101e7565b91505092915050565b610232816101c6565b82525050565b600081519050919050565b600082825260208201905092915050565b60005b83811015610272578082015181840152602081019050610257565b60008484015250505050565b6000601f19601f8301169050919050565b600061029a82610238565b6102a48185610243565b93506102b4818560208601610254565b6102bd8161027e565b840191505092915050565b6000819050919050565b6102db816102c8565b82525050565b600060c0820190506102f66000830189610229565b8181036020830152610308818861028f565b905061031760408301876102d2565b61032460608301866102d2565b8181036080830152610336818561028f565b905061034560a0830184610229565b979650505050505050565b7f4e487b7100000000000000000000000000000000000000000000000000000000600052602260045260246000fd5b6000600282049050600182168061039757607f821691505b6020821081036103aa576103a9610350565b5b5091905056fea2646970667358221220ac376c10f1d8dd09e58138f1ceec971614241ff167d61b3d50519165e270b90764736f6c63430008190033",
  "linkReferences": {},
  "deployedLinkReferences": {}
}