{
  "_format": "hh-sol-artifact-1",
  "contractName": "SubmitVote",
  "sourceName": "contracts/vote_2.sol",
  "abi": [
    {
      "anonymous": false,
      "inputs": [
        {
          "indexed": false,
          "internalType": "address",
          "name": "voter",
          "type": "address"
        }
      ],
      "name": "VoteAltered",
      "type": "event"
    },
    {
      "inputs": [
        {
          "internalType": "uint256",
          "name": "",
          "type": "uint256"
        }
      ],
      "name": "blindedChoices",
      "outputs": [
        {
          "internalType": "bytes32",
          "name": "blindedVote",
          "type": "bytes32"
        },
        {
          "internalType": "uint256",
          "name": "timestamp",
          "type": "uint256"
        },
        {
          "internalType": "uint256",
          "name": "nftTokenId",
          "type": "uint256"
        }
      ],
      "stateMutability": "view",
      "type": "function"
    },
    {
      "inputs": [
        {
          "internalType": "bytes32",
          "name": "alterationChoice",
          "type": "bytes32"
        },
        {
          "internalType": "uint256",
          "name": "tokenId",
          "type": "uint256"
        }
      ],
      "name": "commitAlteration",
      "outputs": [],
      "stateMutability": "nonpayable",
      "type": "function"
    },
    {
      "inputs": [
        {
          "internalType": "uint256",
          "name": "tokenId",
          "type": "uint256"
        }
      ],
      "name": "getLatestVote",
      "outputs": [
        {
          "components": [
            {
              "internalType": "uint256",
              "name": "timestamp",
              "type": "uint256"
            },
            {
              "internalType": "bytes32",
              "name": "choice",
              "type": "bytes32"
            },
            {
              "internalType": "uint256",
              "name": "tokenId",
              "type": "uint256"
            },
            {
              "internalType": "bool",
              "name": "isOriginalVote",
              "type": "bool"
            },
            {
              "internalType": "uint256",
              "name": "previousVoteIndex",
              "type": "uint256"
            }
          ],
          "internalType": "struct SubmitVote.Vote",
          "name": "",
          "type": "tuple"
        }
      ],
      "stateMutability": "view",
      "type": "function"
    },
    {
      "inputs": [
        {
          "internalType": "uint256",
          "name": "tokenId",
          "type": "uint256"
        }
      ],
      "name": "getOriginalVote",
      "outputs": [
        {
          "components": [
            {
              "internalType": "uint256",
              "name": "timestamp",
              "type": "uint256"
            },
            {
              "internalType": "bytes32",
              "name": "choice",
              "type": "bytes32"
            },
            {
              "internalType": "uint256",
              "name": "tokenId",
              "type": "uint256"
            },
            {
              "internalType": "bool",
              "name": "isOriginalVote",
              "type": "bool"
            },
            {
              "internalType": "uint256",
              "name": "previousVoteIndex",
              "type": "uint256"
            }
          ],
          "internalType": "struct SubmitVote.Vote",
          "name": "",
          "type": "tuple"
        }
      ],
      "stateMutability": "view",
      "type": "function"
    },
    {
      "inputs": [],
      "name": "nft",
      "outputs": [
        {
          "internalType": "contract IERC721",
          "name": "",
          "type": "address"
        }
      ],
      "stateMutability": "view",
      "type": "function"
    },
    {
      "inputs": [
        {
          "internalType": "bytes32",
          "name": "originalProof",
          "type": "bytes32"
        },
        {
          "internalType": "uint256",
          "name": "tokenId",
          "type": "uint256"
        }
      ],
      "name": "requestAlteration",
      "outputs": [],
      "stateMutability": "nonpayable",
      "type": "function"
    },
    {
      "inputs": [
        {
          "internalType": "bytes32",
          "name": "blindedChoice",
          "type": "bytes32"
        },
        {
          "internalType": "uint256",
          "name": "tokenId",
          "type": "uint256"
        }
      ],
      "name": "submitCommitment",
      "outputs": [],
      "stateMutability": "nonpayable",
      "type": "function"
    },
    {
      "inputs": [
        {
          "internalType": "bytes32",
          "name": "alterationVote",
          "type": "bytes32"
        },
        {
          "internalType": "uint256",
          "name": "tokenId",
          "type": "uint256"
        }
      ],
      "name": "verifyAlteration",
      "outputs": [],
      "stateMutability": "nonpayable",
      "type": "function"
    },
    {
      "inputs": [
        {
          "internalType": "bytes32",
          "name": "choice",
          "type": "bytes32"
        },
        {
          "internalType": "uint256",
          "name": "tokenId",
          "type": "uint256"
        }
      ],
      "name": "verifyVote",
      "outputs": [],
      "stateMutability": "nonpayable",
      "type": "function"
    },
    {
      "inputs": [
        {
          "internalType": "uint256",
          "name": "",
          "type": "uint256"
        },
        {
          "internalType": "uint256",
          "name": "",
          "type": "uint256"
        }
      ],
      "name": "votes",
      "outputs": [
        {
          "internalType": "uint256",
          "name": "timestamp",
          "type": "uint256"
        },
        {
          "internalType": "bytes32",
          "name": "choice",
          "type": "bytes32"
        },
        {
          "internalType": "uint256",
          "name": "tokenId",
          "type": "uint256"
        },
        {
          "internalType": "bool",
          "name": "isOriginalVote",
          "type": "bool"
        },
        {
          "internalType": "uint256",
          "name": "previousVoteIndex",
          "type": "uint256"
        }
      ],
      "stateMutability": "view",
      "type": "function"
    }
  ],
  "bytecode": "0x6080604052348015600f57600080fd5b50610f518061001f6000396000f3fe608060405234801561001057600080fd5b506004361061009e5760003560e01c8063700dbcf011610066578063700dbcf0146101315780637445fb4614610161578063c6e36a3214610191578063d7d1745b146101c5578063f5c9563c146101e15761009e565b806301592118146100a35780632d5efb44146100bf5780634133c727146100db57806347ccca02146100f75780634a5a038614610115575b600080fd5b6100bd60048036038101906100b89190610996565b610213565b005b6100d960048036038101906100d49190610996565b610266565b005b6100f560048036038101906100f09190610996565b6103be565b005b6100ff61046a565b60405161010c9190610a55565b60405180910390f35b61012f600480360381019061012a9190610996565b61048e565b005b61014b60048036038101906101469190610a70565b6104e1565b6040516101589190610b3e565b60405180910390f35b61017b60048036038101906101769190610a70565b6105cb565b6040516101889190610b3e565b60405180910390f35b6101ab60048036038101906101a69190610b59565b6106d6565b6040516101bc959493929190610bc6565b60405180910390f35b6101df60048036038101906101da9190610996565b610736565b005b6101fb60048036038101906101f69190610a70565b6108c7565b60405161020a93929190610c19565b60405180910390f35b604051806060016040528083815260200142815260200182815250600160008381526020019081526020016000206000820151816000015560208201518160010155604082015181600201559050505050565b816040516020016102779190610c71565b604051602081830303815290604052805190602001206001600083815260200190815260200160002060000154146102e4576040517f08c379a00000000000000000000000000000000000000000000000000000000081526004016102db90610ce9565b60405180910390fd5b60006040518060a001604052804281526020018481526020018381526020016001151581526020017fffffffffffffffffffffffffffffffffffffffffffffffffffffffffffffffff81525090506002600083815260200190815260200160002081908060018154018082558091505060019003906000526020600020906005020160009091909190915060008201518160000155602082015181600101556040820151816002015560608201518160030160006101000a81548160ff021916908315150217905550608082015181600401555050505050565b60006103c9826104e1565b90506000816040516020016103de9190610b3e565b604051602081830303815290604052805190602001209050838114610438576040517f08c379a000000000000000000000000000000000000000000000000000000000815260040161042f90610d55565b60405180910390fd5b60016003600085815260200190815260200160002060006101000a81548160ff02191690831515021790555050505050565b60008054906101000a900473ffffffffffffffffffffffffffffffffffffffff1681565b604051806060016040528083815260200142815260200182815250600160008381526020019081526020016000206000820151816000015560208201518160010155604082015181600201559050505050565b6104e96108f1565b6000600260008481526020019081526020016000208054905011610542576040517f08c379a000000000000000000000000000000000000000000000000000000000815260040161053990610dc1565b60405180910390fd5b6002600083815260200190815260200160002060008154811061056857610567610de1565b5b90600052602060002090600502016040518060a00160405290816000820154815260200160018201548152602001600282015481526020016003820160009054906101000a900460ff161515151581526020016004820154815250509050919050565b6105d36108f1565b600060026000848152602001908152602001600020805490501161062c576040517f08c379a000000000000000000000000000000000000000000000000000000000815260040161062390610dc1565b60405180910390fd5b60026000838152602001908152602001600020600160026000858152602001908152602001600020805490506106629190610e3f565b8154811061067357610672610de1565b5b90600052602060002090600502016040518060a00160405290816000820154815260200160018201548152602001600282015481526020016003820160009054906101000a900460ff161515151581526020016004820154815250509050919050565b600260205281600052604060002081815481106106f257600080fd5b9060005260206000209060050201600091509150508060000154908060010154908060020154908060030160009054906101000a900460ff16908060040154905085565b816040516020016107479190610c71565b604051602081830303815290604052805190602001206001600083815260200190815260200160002060000154146107b4576040517f08c379a00000000000000000000000000000000000000000000000000000000081526004016107ab90610ebf565b60405180910390fd5b60006040518060a00160405280428152602001848152602001838152602001600015158152602001600160026000868152602001908152602001600020805490506107ff9190610e3f565b81525090506002600083815260200190815260200160002081908060018154018082558091505060019003906000526020600020906005020160009091909190915060008201518160000155602082015181600101556040820151816002015560608201518160030160006101000a81548160ff0219169083151502179055506080820151816004015550507f59e081519b00c1738309944946237a3845b298c5d7503717e235d2f674ae2698336040516108ba9190610f00565b60405180910390a1505050565b60016020528060005260406000206000915090508060000154908060010154908060020154905083565b6040518060a00160405280600081526020016000801916815260200160008152602001600015158152602001600081525090565b600080fd5b6000819050919050565b61093d8161092a565b811461094857600080fd5b50565b60008135905061095a81610934565b92915050565b6000819050919050565b61097381610960565b811461097e57600080fd5b50565b6000813590506109908161096a565b92915050565b600080604083850312156109ad576109ac610925565b5b60006109bb8582860161094b565b92505060206109cc85828601610981565b9150509250929050565b600073ffffffffffffffffffffffffffffffffffffffff82169050919050565b6000819050919050565b6000610a1b610a16610a11846109d6565b6109f6565b6109d6565b9050919050565b6000610a2d82610a00565b9050919050565b6000610a3f82610a22565b9050919050565b610a4f81610a34565b82525050565b6000602082019050610a6a6000830184610a46565b92915050565b600060208284031215610a8657610a85610925565b5b6000610a9484828501610981565b91505092915050565b610aa681610960565b82525050565b610ab58161092a565b82525050565b60008115159050919050565b610ad081610abb565b82525050565b60a082016000820151610aec6000850182610a9d565b506020820151610aff6020850182610aac565b506040820151610b126040850182610a9d565b506060820151610b256060850182610ac7565b506080820151610b386080850182610a9d565b50505050565b600060a082019050610b536000830184610ad6565b92915050565b60008060408385031215610b7057610b6f610925565b5b6000610b7e85828601610981565b9250506020610b8f85828601610981565b9150509250929050565b610ba281610960565b82525050565b610bb18161092a565b82525050565b610bc081610abb565b82525050565b600060a082019050610bdb6000830188610b99565b610be86020830187610ba8565b610bf56040830186610b99565b610c026060830185610bb7565b610c0f6080830184610b99565b9695505050505050565b6000606082019050610c2e6000830186610ba8565b610c3b6020830185610b99565b610c486040830184610b99565b949350505050565b6000819050919050565b610c6b610c668261092a565b610c50565b82525050565b6000610c7d8284610c5a565b60208201915081905092915050565b600082825260208201905092915050565b7f496e76616c696420766f74650000000000000000000000000000000000000000600082015250565b6000610cd3600c83610c8c565b9150610cde82610c9d565b602082019050919050565b60006020820190508181036000830152610d0281610cc6565b9050919050565b7f496e76616c6964206f726967696e616c20766f74650000000000000000000000600082015250565b6000610d3f601583610c8c565b9150610d4a82610d09565b602082019050919050565b60006020820190508181036000830152610d6e81610d32565b9050919050565b7f4e6f20766f74657320666f756e6420666f72207468697320746f6b656e000000600082015250565b6000610dab601d83610c8c565b9150610db682610d75565b602082019050919050565b60006020820190508181036000830152610dda81610d9e565b9050919050565b7f4e487b7100000000000000000000000000000000000000000000000000000000600052603260045260246000fd5b7f4e487b7100000000000000000000000000000000000000000000000000000000600052601160045260246000fd5b6000610e4a82610960565b9150610e5583610960565b9250828203905081811115610e6d57610e6c610e10565b5b92915050565b7f496e76616c696420616c7465726174696f6e0000000000000000000000000000600082015250565b6000610ea9601283610c8c565b9150610eb482610e73565b602082019050919050565b60006020820190508181036000830152610ed881610e9c565b9050919050565b6000610eea826109d6565b9050919050565b610efa81610edf565b82525050565b6000602082019050610f156000830184610ef1565b9291505056fea2646970667358221220a8a349ef36fa6a691b783cde11aa79bed5666cc04f260a42b18412346d0cefd064736f6c63430008190033",
  "linkReferences": {},
  "deployedLinkReferences": {}
}