{
  "_format": "hh-sol-artifact-1",
  "contractName": "Authorise",
  "sourceName": "contracts/authorise_1.sol",
  "abi": [
    {
      "inputs": [],
      "stateMutability": "nonpayable",
      "type": "constructor"
    },
    {
      "inputs": [
        {
          "internalType": "address",
          "name": "sender",
          "type": "address"
        },
        {
          "internalType": "uint256",
          "name": "tokenId",
          "type": "uint256"
        },
        {
          "internalType": "address",
          "name": "owner",
          "type": "address"
        }
      ],
      "name": "ERC721IncorrectOwner",
      "type": "error"
    },
    {
      "inputs": [
        {
          "internalType": "address",
          "name": "operator",
          "type": "address"
        },
        {
          "internalType": "uint256",
          "name": "tokenId",
          "type": "uint256"
        }
      ],
      "name": "ERC721InsufficientApproval",
      "type": "error"
    },
    {
      "inputs": [
        {
          "internalType": "address",
          "name": "approver",
          "type": "address"
        }
      ],
      "name": "ERC721InvalidApprover",
      "type": "error"
    },
    {
      "inputs": [
        {
          "internalType": "address",
          "name": "operator",
          "type": "address"
        }
      ],
      "name": "ERC721InvalidOperator",
      "type": "error"
    },
    {
      "inputs": [
        {
          "internalType": "address",
          "name": "owner",
          "type": "address"
        }
      ],
      "name": "ERC721InvalidOwner",
      "type": "error"
    },
    {
      "inputs": [
        {
          "internalType": "address",
          "name": "receiver",
          "type": "address"
        }
      ],
      "name": "ERC721InvalidReceiver",
      "type": "error"
    },
    {
      "inputs": [
        {
          "internalType": "address",
          "name": "sender",
          "type": "address"
        }
      ],
      "name": "ERC721InvalidSender",
      "type": "error"
    },
    {
      "inputs": [
        {
          "internalType": "uint256",
          "name": "tokenId",
          "type": "uint256"
        }
      ],
      "name": "ERC721NonexistentToken",
      "type": "error"
    },
    {
      "anonymous": false,
      "inputs": [
        {
          "indexed": true,
          "internalType": "address",
          "name": "owner",
          "type": "address"
        },
        {
          "indexed": true,
          "internalType": "address",
          "name": "approved",
          "type": "address"
        },
        {
          "indexed": true,
          "internalType": "uint256",
          "name": "tokenId",
          "type": "uint256"
        }
      ],
      "name": "Approval",
      "type": "event"
    },
    {
      "anonymous": false,
      "inputs": [
        {
          "indexed": true,
          "internalType": "address",
          "name": "owner",
          "type": "address"
        },
        {
          "indexed": true,
          "internalType": "address",
          "name": "operator",
          "type": "address"
        },
        {
          "indexed": false,
          "internalType": "bool",
          "name": "approved",
          "type": "bool"
        }
      ],
      "name": "ApprovalForAll",
      "type": "event"
    },
    {
      "anonymous": false,
      "inputs": [
        {
          "indexed": true,
          "internalType": "address",
          "name": "voter",
          "type": "address"
        },
        {
          "indexed": false,
          "internalType": "string",
          "name": "message",
          "type": "string"
        }
      ],
      "name": "InvalidCertificate",
      "type": "event"
    },
    {
      "anonymous": false,
      "inputs": [
        {
          "indexed": true,
          "internalType": "address",
          "name": "from",
          "type": "address"
        },
        {
          "indexed": true,
          "internalType": "address",
          "name": "to",
          "type": "address"
        },
        {
          "indexed": true,
          "internalType": "uint256",
          "name": "tokenId",
          "type": "uint256"
        }
      ],
      "name": "Transfer",
      "type": "event"
    },
    {
      "inputs": [
        {
          "internalType": "address",
          "name": "to",
          "type": "address"
        },
        {
          "internalType": "uint256",
          "name": "tokenId",
          "type": "uint256"
        }
      ],
      "name": "approve",
      "outputs": [],
      "stateMutability": "nonpayable",
      "type": "function"
    },
    {
      "inputs": [
        {
          "internalType": "address",
          "name": "owner",
          "type": "address"
        }
      ],
      "name": "balanceOf",
      "outputs": [
        {
          "internalType": "uint256",
          "name": "",
          "type": "uint256"
        }
      ],
      "stateMutability": "view",
      "type": "function"
    },
    {
      "inputs": [
        {
          "internalType": "address",
          "name": "",
          "type": "address"
        }
      ],
      "name": "eligibleVoters",
      "outputs": [
        {
          "internalType": "uint256",
          "name": "",
          "type": "uint256"
        }
      ],
      "stateMutability": "view",
      "type": "function"
    },
    {
      "inputs": [
        {
          "internalType": "uint256",
          "name": "tokenId",
          "type": "uint256"
        }
      ],
      "name": "getApproved",
      "outputs": [
        {
          "internalType": "address",
          "name": "",
          "type": "address"
        }
      ],
      "stateMutability": "view",
      "type": "function"
    },
    {
      "inputs": [
        {
          "internalType": "address",
          "name": "owner",
          "type": "address"
        },
        {
          "internalType": "address",
          "name": "operator",
          "type": "address"
        }
      ],
      "name": "isApprovedForAll",
      "outputs": [
        {
          "internalType": "bool",
          "name": "",
          "type": "bool"
        }
      ],
      "stateMutability": "view",
      "type": "function"
    },
    {
      "inputs": [],
      "name": "name",
      "outputs": [
        {
          "internalType": "string",
          "name": "",
          "type": "string"
        }
      ],
      "stateMutability": "view",
      "type": "function"
    },
    {
      "inputs": [
        {
          "internalType": "uint256",
          "name": "tokenId",
          "type": "uint256"
        }
      ],
      "name": "ownerOf",
      "outputs": [
        {
          "internalType": "address",
          "name": "",
          "type": "address"
        }
      ],
      "stateMutability": "view",
      "type": "function"
    },
    {
      "inputs": [
        {
          "internalType": "bytes32",
          "name": "_certificate",
          "type": "bytes32"
        },
        {
          "internalType": "bytes",
          "name": "_signature",
          "type": "bytes"
        }
      ],
      "name": "requestBallot",
      "outputs": [],
      "stateMutability": "nonpayable",
      "type": "function"
    },
    {
      "inputs": [
        {
          "internalType": "address",
          "name": "from",
          "type": "address"
        },
        {
          "internalType": "address",
          "name": "to",
          "type": "address"
        },
        {
          "internalType": "uint256",
          "name": "tokenId",
          "type": "uint256"
        }
      ],
      "name": "safeTransferFrom",
      "outputs": [],
      "stateMutability": "nonpayable",
      "type": "function"
    },
    {
      "inputs": [
        {
          "internalType": "address",
          "name": "from",
          "type": "address"
        },
        {
          "internalType": "address",
          "name": "to",
          "type": "address"
        },
        {
          "internalType": "uint256",
          "name": "tokenId",
          "type": "uint256"
        },
        {
          "internalType": "bytes",
          "name": "data",
          "type": "bytes"
        }
      ],
      "name": "safeTransferFrom",
      "outputs": [],
      "stateMutability": "nonpayable",
      "type": "function"
    },
    {
      "inputs": [
        {
          "internalType": "address",
          "name": "operator",
          "type": "address"
        },
        {
          "internalType": "bool",
          "name": "approved",
          "type": "bool"
        }
      ],
      "name": "setApprovalForAll",
      "outputs": [],
      "stateMutability": "nonpayable",
      "type": "function"
    },
    {
      "inputs": [
        {
          "internalType": "bytes4",
          "name": "interfaceId",
          "type": "bytes4"
        }
      ],
      "name": "supportsInterface",
      "outputs": [
        {
          "internalType": "bool",
          "name": "",
          "type": "bool"
        }
      ],
      "stateMutability": "view",
      "type": "function"
    },
    {
      "inputs": [],
      "name": "symbol",
      "outputs": [
        {
          "internalType": "string",
          "name": "",
          "type": "string"
        }
      ],
      "stateMutability": "view",
      "type": "function"
    },
    {
      "inputs": [
        {
          "internalType": "uint256",
          "name": "tokenId",
          "type": "uint256"
        }
      ],
      "name": "tokenURI",
      "outputs": [
        {
          "internalType": "string",
          "name": "",
          "type": "string"
        }
      ],
      "stateMutability": "view",
      "type": "function"
    },
    {
      "inputs": [
        {
          "internalType": "address",
          "name": "from",
          "type": "address"
        },
        {
          "internalType": "address",
          "name": "to",
          "type": "address"
        },
        {
          "internalType": "uint256",
          "name": "tokenId",
          "type": "uint256"
        }
      ],
      "name": "transferFrom",
      "outputs": [],
      "stateMutability": "nonpayable",
      "type": "function"
    }
  ],
  "bytecode": "0x60806040526040516100109061010d565b604051809103906000f08015801561002c573d6000803e3d6000fd5b50600760006101000a81548173ffffffffffffffffffffffffffffffffffffffff021916908373ffffffffffffffffffffffffffffffffffffffff16021790555034801561007957600080fd5b506040518060400160405280600c81526020017f417574686f726973654e465400000000000000000000000000000000000000008152506040518060400160405280600381526020017f414e54000000000000000000000000000000000000000000000000000000000081525081600090816100f5919061036a565b508060019081610105919061036a565b50505061043c565b6102f08061297a83390190565b600081519050919050565b7f4e487b7100000000000000000000000000000000000000000000000000000000600052604160045260246000fd5b7f4e487b7100000000000000000000000000000000000000000000000000000000600052602260045260246000fd5b6000600282049050600182168061019b57607f821691505b6020821081036101ae576101ad610154565b5b50919050565b60008190508160005260206000209050919050565b60006020601f8301049050919050565b600082821b905092915050565b6000600883026102167fffffffffffffffffffffffffffffffffffffffffffffffffffffffffffffffff826101d9565b61022086836101d9565b95508019841693508086168417925050509392505050565b6000819050919050565b6000819050919050565b600061026761026261025d84610238565b610242565b610238565b9050919050565b6000819050919050565b6102818361024c565b61029561028d8261026e565b8484546101e6565b825550505050565b600090565b6102aa61029d565b6102b5818484610278565b505050565b5b818110156102d9576102ce6000826102a2565b6001810190506102bb565b5050565b601f82111561031e576102ef816101b4565b6102f8846101c9565b81016020851015610307578190505b61031b610313856101c9565b8301826102ba565b50505b505050565b600082821c905092915050565b600061034160001984600802610323565b1980831691505092915050565b600061035a8383610330565b9150826002028217905092915050565b6103738261011a565b67ffffffffffffffff81111561038c5761038b610125565b5b6103968254610183565b6103a18282856102dd565b600060209050601f8311600181146103d457600084156103c2578287015190505b6103cc858261034e565b865550610434565b601f1984166103e2866101b4565b60005b8281101561040a578489015182556001820191506020850194506020810190506103e5565b868310156104275784890151610423601f891682610330565b8355505b6001600288020188555050505b505050505050565b61252f8061044b6000396000f3fe608060405234801561001057600080fd5b50600436106100f55760003560e01c806370a0823111610097578063b88d4fde11610066578063b88d4fde14610282578063c87b56dd1461029e578063e8efd480146102ce578063e985e9c5146102fe576100f5565b806370a08231146101fc57806383665c1a1461022c57806395d89b4114610248578063a22cb46514610266576100f5565b8063095ea7b3116100d3578063095ea7b31461017857806323b872dd1461019457806342842e0e146101b05780636352211e146101cc576100f5565b806301ffc9a7146100fa57806306fdde031461012a578063081812fc14610148575b600080fd5b610114600480360381019061010f9190611940565b61032e565b6040516101219190611988565b60405180910390f35b610132610410565b60405161013f9190611a33565b60405180910390f35b610162600480360381019061015d9190611a8b565b6104a2565b60405161016f9190611af9565b60405180910390f35b610192600480360381019061018d9190611b40565b6104be565b005b6101ae60048036038101906101a99190611b80565b6104d4565b005b6101ca60048036038101906101c59190611b80565b6105d6565b005b6101e660048036038101906101e19190611a8b565b6105f6565b6040516101f39190611af9565b60405180910390f35b61021660048036038101906102119190611bd3565b610608565b6040516102239190611c0f565b60405180910390f35b61024660048036038101906102419190611d95565b6106c2565b005b6102506108fd565b60405161025d9190611a33565b60405180910390f35b610280600480360381019061027b9190611e1d565b61098f565b005b61029c60048036038101906102979190611e5d565b6109a5565b005b6102b860048036038101906102b39190611a8b565b6109c2565b6040516102c59190611a33565b60405180910390f35b6102e860048036038101906102e39190611bd3565b610a2b565b6040516102f59190611c0f565b60405180910390f35b61031860048036038101906103139190611ee0565b610a43565b6040516103259190611988565b60405180910390f35b60007f80ac58cd000000000000000000000000000000000000000000000000000000007bffffffffffffffffffffffffffffffffffffffffffffffffffffffff1916827bffffffffffffffffffffffffffffffffffffffffffffffffffffffff191614806103f957507f5b5e139f000000000000000000000000000000000000000000000000000000007bffffffffffffffffffffffffffffffffffffffffffffffffffffffff1916827bffffffffffffffffffffffffffffffffffffffffffffffffffffffff1916145b80610409575061040882610ad7565b5b9050919050565b60606000805461041f90611f4f565b80601f016020809104026020016040519081016040528092919081815260200182805461044b90611f4f565b80156104985780601f1061046d57610100808354040283529160200191610498565b820191906000526020600020905b81548152906001019060200180831161047b57829003601f168201915b5050505050905090565b60006104ad82610b41565b506104b782610bc9565b9050919050565b6104d082826104cb610c06565b610c0e565b5050565b600073ffffffffffffffffffffffffffffffffffffffff168273ffffffffffffffffffffffffffffffffffffffff16036105465760006040517f64a0ae9200000000000000000000000000000000000000000000000000000000815260040161053d9190611af9565b60405180910390fd5b600061055a8383610555610c06565b610c20565b90508373ffffffffffffffffffffffffffffffffffffffff168173ffffffffffffffffffffffffffffffffffffffff16146105d0578382826040517f64283d7b0000000000000000000000000000000000000000000000000000000081526004016105c793929190611f80565b60405180910390fd5b50505050565b6105f1838383604051806020016040528060008152506109a5565b505050565b600061060182610b41565b9050919050565b60008073ffffffffffffffffffffffffffffffffffffffff168273ffffffffffffffffffffffffffffffffffffffff160361067b5760006040517f89c62b640000000000000000000000000000000000000000000000000000000081526004016106729190611af9565b60405180910390fd5b600360008373ffffffffffffffffffffffffffffffffffffffff1673ffffffffffffffffffffffffffffffffffffffff168152602001908152602001600020549050919050565b60008290506000806000600760009054906101000a900473ffffffffffffffffffffffffffffffffffffffff1673ffffffffffffffffffffffffffffffffffffffff1663850c1768856040518263ffffffff1660e01b81526004016107279190611fc6565b6000604051808303816000875af1158015610746573d6000803e3d6000fd5b505050506040513d6000823e3d601f19601f8201168201806040525081019061076f91906120ac565b92509250925082156108a85760008460405160200161078e9190612193565b60405160208183030381529060405280519060200120905060008060006107b489610e3a565b9250925092506000600185858585604051600081526020016040526040516107df94939291906121d5565b6020604051602081039080840390855afa158015610801573d6000803e3d6000fd5b5050506020604051035190508660001c73ffffffffffffffffffffffffffffffffffffffff168173ffffffffffffffffffffffffffffffffffffffff16036108515761084c33610e6c565b61089e565b3373ffffffffffffffffffffffffffffffffffffffff167f7a0c0ca9ed36fae0fa650d7557520482f93b4dfb586631cd1a1b2a965c705c4360405161089590612266565b60405180910390a25b50505050506108f5565b3373ffffffffffffffffffffffffffffffffffffffff167f7a0c0ca9ed36fae0fa650d7557520482f93b4dfb586631cd1a1b2a965c705c436040516108ec906122d2565b60405180910390a25b505050505050565b60606001805461090c90611f4f565b80601f016020809104026020016040519081016040528092919081815260200182805461093890611f4f565b80156109855780601f1061095a57610100808354040283529160200191610985565b820191906000526020600020905b81548152906001019060200180831161096857829003601f168201915b5050505050905090565b6109a161099a610c06565b8383610ed2565b5050565b6109b08484846104d4565b6109bc84848484611041565b50505050565b60606109cd82610b41565b5060006109d86111f8565b905060008151116109f85760405180602001604052806000815250610a23565b80610a028461120f565b604051602001610a13929190612323565b6040516020818303038152906040525b915050919050565b60086020528060005260406000206000915090505481565b6000600560008473ffffffffffffffffffffffffffffffffffffffff1673ffffffffffffffffffffffffffffffffffffffff16815260200190815260200160002060008373ffffffffffffffffffffffffffffffffffffffff1673ffffffffffffffffffffffffffffffffffffffff16815260200190815260200160002060009054906101000a900460ff16905092915050565b60007f01ffc9a7000000000000000000000000000000000000000000000000000000007bffffffffffffffffffffffffffffffffffffffffffffffffffffffff1916827bffffffffffffffffffffffffffffffffffffffffffffffffffffffff1916149050919050565b600080610b4d836112dd565b9050600073ffffffffffffffffffffffffffffffffffffffff168173ffffffffffffffffffffffffffffffffffffffff1603610bc057826040517f7e273289000000000000000000000000000000000000000000000000000000008152600401610bb79190611c0f565b60405180910390fd5b80915050919050565b60006004600083815260200190815260200160002060009054906101000a900473ffffffffffffffffffffffffffffffffffffffff169050919050565b600033905090565b610c1b838383600161131a565b505050565b600080610c2c846112dd565b9050600073ffffffffffffffffffffffffffffffffffffffff168373ffffffffffffffffffffffffffffffffffffffff1614610c6e57610c6d8184866114df565b5b600073ffffffffffffffffffffffffffffffffffffffff168173ffffffffffffffffffffffffffffffffffffffff1614610cff57610cb060008560008061131a565b6001600360008373ffffffffffffffffffffffffffffffffffffffff1673ffffffffffffffffffffffffffffffffffffffff168152602001908152602001600020600082825403925050819055505b600073ffffffffffffffffffffffffffffffffffffffff168573ffffffffffffffffffffffffffffffffffffffff1614610d82576001600360008773ffffffffffffffffffffffffffffffffffffffff1673ffffffffffffffffffffffffffffffffffffffff168152602001908152602001600020600082825401925050819055505b846002600086815260200190815260200160002060006101000a81548173ffffffffffffffffffffffffffffffffffffffff021916908373ffffffffffffffffffffffffffffffffffffffff160217905550838573ffffffffffffffffffffffffffffffffffffffff168273ffffffffffffffffffffffffffffffffffffffff167fddf252ad1be2c89b69c2b068fc378daa952ba7f163c4a11628f55a4df523b3ef60405160405180910390a4809150509392505050565b60008060006041845114610e4d57600080fd5b6020840151915060408401519050606084015160001a92509193909250565b610e746115a3565b6000610e7e6115bd565b9050610e8a82826115c7565b80600860008473ffffffffffffffffffffffffffffffffffffffff1673ffffffffffffffffffffffffffffffffffffffff168152602001908152602001600020819055505050565b600073ffffffffffffffffffffffffffffffffffffffff168273ffffffffffffffffffffffffffffffffffffffff1603610f4357816040517f5b08ba18000000000000000000000000000000000000000000000000000000008152600401610f3a9190611af9565b60405180910390fd5b80600560008573ffffffffffffffffffffffffffffffffffffffff1673ffffffffffffffffffffffffffffffffffffffff16815260200190815260200160002060008473ffffffffffffffffffffffffffffffffffffffff1673ffffffffffffffffffffffffffffffffffffffff16815260200190815260200160002060006101000a81548160ff0219169083151502179055508173ffffffffffffffffffffffffffffffffffffffff168373ffffffffffffffffffffffffffffffffffffffff167f17307eab39ab6107e8899845ad3d59bd9653f200f220920489ca2b5937696c31836040516110349190611988565b60405180910390a3505050565b60008373ffffffffffffffffffffffffffffffffffffffff163b11156111f2578273ffffffffffffffffffffffffffffffffffffffff1663150b7a02611085610c06565b8685856040518563ffffffff1660e01b81526004016110a7949392919061239c565b6020604051808303816000875af19250505080156110e357506040513d601f19601f820116820180604052508101906110e091906123fd565b60015b611167573d8060008114611113576040519150601f19603f3d011682016040523d82523d6000602084013e611118565b606091505b50600081510361115f57836040517f64a0ae920000000000000000000000000000000000000000000000000000000081526004016111569190611af9565b60405180910390fd5b805181602001fd5b63150b7a0260e01b7bffffffffffffffffffffffffffffffffffffffffffffffffffffffff1916817bffffffffffffffffffffffffffffffffffffffffffffffffffffffff1916146111f057836040517f64a0ae920000000000000000000000000000000000000000000000000000000081526004016111e79190611af9565b60405180910390fd5b505b50505050565b606060405180602001604052806000815250905090565b60606000600161121e846116c0565b01905060008167ffffffffffffffff81111561123d5761123c611c6a565b5b6040519080825280601f01601f19166020018201604052801561126f5781602001600182028036833780820191505090505b509050600082602001820190505b6001156112d2578080600190039150507f3031323334353637383961626364656600000000000000000000000000000000600a86061a8153600a85816112c6576112c561242a565b5b0494506000850361127d575b819350505050919050565b60006002600083815260200190815260200160002060009054906101000a900473ffffffffffffffffffffffffffffffffffffffff169050919050565b80806113535750600073ffffffffffffffffffffffffffffffffffffffff168273ffffffffffffffffffffffffffffffffffffffff1614155b1561148757600061136384610b41565b9050600073ffffffffffffffffffffffffffffffffffffffff168373ffffffffffffffffffffffffffffffffffffffff16141580156113ce57508273ffffffffffffffffffffffffffffffffffffffff168173ffffffffffffffffffffffffffffffffffffffff1614155b80156113e157506113df8184610a43565b155b1561142357826040517fa9fbf51f00000000000000000000000000000000000000000000000000000000815260040161141a9190611af9565b60405180910390fd5b811561148557838573ffffffffffffffffffffffffffffffffffffffff168273ffffffffffffffffffffffffffffffffffffffff167f8c5be1e5ebec7d5bd14f71427d1e84f3dd0314c0f7b2291e5b200ac8c7c3b92560405160405180910390a45b505b836004600085815260200190815260200160002060006101000a81548173ffffffffffffffffffffffffffffffffffffffff021916908373ffffffffffffffffffffffffffffffffffffffff16021790555050505050565b6114ea838383611813565b61159e57600073ffffffffffffffffffffffffffffffffffffffff168373ffffffffffffffffffffffffffffffffffffffff160361155f57806040517f7e2732890000000000000000000000000000000000000000000000000000000081526004016115569190611c0f565b60405180910390fd5b81816040517f177e802f000000000000000000000000000000000000000000000000000000008152600401611595929190612459565b60405180910390fd5b505050565b600660008154809291906115b6906124b1565b9190505550565b6000600654905090565b600073ffffffffffffffffffffffffffffffffffffffff168273ffffffffffffffffffffffffffffffffffffffff16036116395760006040517f64a0ae920000000000000000000000000000000000000000000000000000000081526004016116309190611af9565b60405180910390fd5b600061164783836000610c20565b9050600073ffffffffffffffffffffffffffffffffffffffff168173ffffffffffffffffffffffffffffffffffffffff16146116bb5760006040517f73c6ac6e0000000000000000000000000000000000000000000000000000000081526004016116b29190611af9565b60405180910390fd5b505050565b600080600090507a184f03e93ff9f4daa797ed6e38ed64bf6a1f010000000000000000831061171e577a184f03e93ff9f4daa797ed6e38ed64bf6a1f01000000000000000083816117145761171361242a565b5b0492506040810190505b6d04ee2d6d415b85acef8100000000831061175b576d04ee2d6d415b85acef810000000083816117515761175061242a565b5b0492506020810190505b662386f26fc10000831061178a57662386f26fc1000083816117805761177f61242a565b5b0492506010810190505b6305f5e10083106117b3576305f5e10083816117a9576117a861242a565b5b0492506008810190505b61271083106117d85761271083816117ce576117cd61242a565b5b0492506004810190505b606483106117fb57606483816117f1576117f061242a565b5b0492506002810190505b600a831061180a576001810190505b80915050919050565b60008073ffffffffffffffffffffffffffffffffffffffff168373ffffffffffffffffffffffffffffffffffffffff16141580156118cb57508273ffffffffffffffffffffffffffffffffffffffff168473ffffffffffffffffffffffffffffffffffffffff16148061188c575061188b8484610a43565b5b806118ca57508273ffffffffffffffffffffffffffffffffffffffff166118b283610bc9565b73ffffffffffffffffffffffffffffffffffffffff16145b5b90509392505050565b6000604051905090565b600080fd5b600080fd5b60007fffffffff0000000000000000000000000000000000000000000000000000000082169050919050565b61191d816118e8565b811461192857600080fd5b50565b60008135905061193a81611914565b92915050565b600060208284031215611956576119556118de565b5b60006119648482850161192b565b91505092915050565b60008115159050919050565b6119828161196d565b82525050565b600060208201905061199d6000830184611979565b92915050565b600081519050919050565b600082825260208201905092915050565b60005b838110156119dd5780820151818401526020810190506119c2565b60008484015250505050565b6000601f19601f8301169050919050565b6000611a05826119a3565b611a0f81856119ae565b9350611a1f8185602086016119bf565b611a28816119e9565b840191505092915050565b60006020820190508181036000830152611a4d81846119fa565b905092915050565b6000819050919050565b611a6881611a55565b8114611a7357600080fd5b50565b600081359050611a8581611a5f565b92915050565b600060208284031215611aa157611aa06118de565b5b6000611aaf84828501611a76565b91505092915050565b600073ffffffffffffffffffffffffffffffffffffffff82169050919050565b6000611ae382611ab8565b9050919050565b611af381611ad8565b82525050565b6000602082019050611b0e6000830184611aea565b92915050565b611b1d81611ad8565b8114611b2857600080fd5b50565b600081359050611b3a81611b14565b92915050565b60008060408385031215611b5757611b566118de565b5b6000611b6585828601611b2b565b9250506020611b7685828601611a76565b9150509250929050565b600080600060608486031215611b9957611b986118de565b5b6000611ba786828701611b2b565b9350506020611bb886828701611b2b565b9250506040611bc986828701611a76565b9150509250925092565b600060208284031215611be957611be86118de565b5b6000611bf784828501611b2b565b91505092915050565b611c0981611a55565b82525050565b6000602082019050611c246000830184611c00565b92915050565b6000819050919050565b611c3d81611c2a565b8114611c4857600080fd5b50565b600081359050611c5a81611c34565b92915050565b600080fd5b600080fd5b7f4e487b7100000000000000000000000000000000000000000000000000000000600052604160045260246000fd5b611ca2826119e9565b810181811067ffffffffffffffff82111715611cc157611cc0611c6a565b5b80604052505050565b6000611cd46118d4565b9050611ce08282611c99565b919050565b600067ffffffffffffffff821115611d0057611cff611c6a565b5b611d09826119e9565b9050602081019050919050565b82818337600083830152505050565b6000611d38611d3384611ce5565b611cca565b905082815260208101848484011115611d5457611d53611c65565b5b611d5f848285611d16565b509392505050565b600082601f830112611d7c57611d7b611c60565b5b8135611d8c848260208601611d25565b91505092915050565b60008060408385031215611dac57611dab6118de565b5b6000611dba85828601611c4b565b925050602083013567ffffffffffffffff811115611ddb57611dda6118e3565b5b611de785828601611d67565b9150509250929050565b611dfa8161196d565b8114611e0557600080fd5b50565b600081359050611e1781611df1565b92915050565b60008060408385031215611e3457611e336118de565b5b6000611e4285828601611b2b565b9250506020611e5385828601611e08565b9150509250929050565b60008060008060808587031215611e7757611e766118de565b5b6000611e8587828801611b2b565b9450506020611e9687828801611b2b565b9350506040611ea787828801611a76565b925050606085013567ffffffffffffffff811115611ec857611ec76118e3565b5b611ed487828801611d67565b91505092959194509250565b60008060408385031215611ef757611ef66118de565b5b6000611f0585828601611b2b565b9250506020611f1685828601611b2b565b9150509250929050565b7f4e487b7100000000000000000000000000000000000000000000000000000000600052602260045260246000fd5b60006002820490506001821680611f6757607f821691505b602082108103611f7a57611f79611f20565b5b50919050565b6000606082019050611f956000830186611aea565b611fa26020830185611c00565b611faf6040830184611aea565b949350505050565b611fc081611c2a565b82525050565b6000602082019050611fdb6000830184611fb7565b92915050565b600081519050611ff081611df1565b92915050565b60008151905061200581611c34565b92915050565b600067ffffffffffffffff82111561202657612025611c6a565b5b61202f826119e9565b9050602081019050919050565b600061204f61204a8461200b565b611cca565b90508281526020810184848401111561206b5761206a611c65565b5b6120768482856119bf565b509392505050565b600082601f83011261209357612092611c60565b5b81516120a384826020860161203c565b91505092915050565b6000806000606084860312156120c5576120c46118de565b5b60006120d386828701611fe1565b93505060206120e486828701611ff6565b925050604084015167ffffffffffffffff811115612105576121046118e3565b5b6121118682870161207e565b9150509250925092565b600081905092915050565b7f19457468657265756d205369676e6564204d6573736167653a0a333200000000600082015250565b600061215c601c8361211b565b915061216782612126565b601c82019050919050565b6000819050919050565b61218d61218882611c2a565b612172565b82525050565b600061219e8261214f565b91506121aa828461217c565b60208201915081905092915050565b600060ff82169050919050565b6121cf816121b9565b82525050565b60006080820190506121ea6000830187611fb7565b6121f760208301866121c6565b6122046040830185611fb7565b6122116060830184611fb7565b95945050505050565b7f496e76616c6964207369676e6174757265000000000000000000000000000000600082015250565b60006122506011836119ae565b915061225b8261221a565b602082019050919050565b6000602082019050818103600083015261227f81612243565b9050919050565b7f436572746966696361746520697320696e76616c696400000000000000000000600082015250565b60006122bc6016836119ae565b91506122c782612286565b602082019050919050565b600060208201905081810360008301526122eb816122af565b9050919050565b60006122fd826119a3565b612307818561211b565b93506123178185602086016119bf565b80840191505092915050565b600061232f82856122f2565b915061233b82846122f2565b91508190509392505050565b600081519050919050565b600082825260208201905092915050565b600061236e82612347565b6123788185612352565b93506123888185602086016119bf565b612391816119e9565b840191505092915050565b60006080820190506123b16000830187611aea565b6123be6020830186611aea565b6123cb6040830185611c00565b81810360608301526123dd8184612363565b905095945050505050565b6000815190506123f781611914565b92915050565b600060208284031215612413576124126118de565b5b6000612421848285016123e8565b91505092915050565b7f4e487b7100000000000000000000000000000000000000000000000000000000600052601260045260246000fd5b600060408201905061246e6000830185611aea565b61247b6020830184611c00565b9392505050565b7f4e487b7100000000000000000000000000000000000000000000000000000000600052601160045260246000fd5b60006124bc82611a55565b91507fffffffffffffffffffffffffffffffffffffffffffffffffffffffffffffffff82036124ee576124ed612482565b5b60018201905091905056fea264697066735822122007b8e8e964518b1372aced81c120abb70bdb327db368c6d66b38f349139d53c264736f6c6343000819003360806040527f5075626c69634b65790000000000000000000000000000000000000000000000600055348015603357600080fd5b506102ad806100436000396000f3fe608060405234801561001057600080fd5b50600436106100365760003560e01c806363ffab311461003b578063850c176814610059575b600080fd5b61004361008b565b6040516100509190610115565b60405180910390f35b610073600480360381019061006e9190610161565b610091565b60405161008293929190610239565b60405180910390f35b60005481565b600080606060008060001b85036100a95760006100ac565b60015b905060006040518060400160405280600481526020017f44617461000000000000000000000000000000000000000000000000000000008152509050816000548294509450945050509193909250565b6000819050919050565b61010f816100fc565b82525050565b600060208201905061012a6000830184610106565b92915050565b600080fd5b61013e816100fc565b811461014957600080fd5b50565b60008135905061015b81610135565b92915050565b60006020828403121561017757610176610130565b5b60006101858482850161014c565b91505092915050565b60008115159050919050565b6101a38161018e565b82525050565b600081519050919050565b600082825260208201905092915050565b60005b838110156101e35780820151818401526020810190506101c8565b60008484015250505050565b6000601f19601f8301169050919050565b600061020b826101a9565b61021581856101b4565b93506102258185602086016101c5565b61022e816101ef565b840191505092915050565b600060608201905061024e600083018661019a565b61025b6020830185610106565b818103604083015261026d8184610200565b905094935050505056fea26469706673582212204e73032b1507b96aaefdea900e4123815d4b3c28cf76c4fdd0d5ad6586c978d364736f6c63430008190033",
  "linkReferences": {},
  "deployedLinkReferences": {}
}