{
  "_format": "hh-sol-artifact-1",
  "contractName": "MockOracle",
  "sourceName": "contracts/authorise_1.sol",
  "abi": [
    {
      "inputs": [],
      "name": "publicKey",
      "outputs": [
        {
          "internalType": "bytes32",
          "name": "",
          "type": "bytes32"
        }
      ],
      "stateMutability": "view",
      "type": "function"
    },
    {
      "inputs": [
        {
          "internalType": "bytes32",
          "name": "certificate",
          "type": "bytes32"
        }
      ],
      "name": "verifyCertificate",
      "outputs": [
        {
          "internalType": "bool",
          "name": "",
          "type": "bool"
        },
        {
          "internalType": "bytes32",
          "name": "",
          "type": "bytes32"
        },
        {
          "internalType": "string",
          "name": "",
          "type": "string"
        }
      ],
      "stateMutability": "nonpayable",
      "type": "function"
    }
  ],
  "bytecode": "0x60806040527f5075626c69634b65790000000000000000000000000000000000000000000000600055348015603357600080fd5b506102ad806100436000396000f3fe608060405234801561001057600080fd5b50600436106100365760003560e01c806363ffab311461003b578063850c176814610059575b600080fd5b61004361008b565b6040516100509190610115565b60405180910390f35b610073600480360381019061006e9190610161565b610091565b60405161008293929190610239565b60405180910390f35b60005481565b600080606060008060001b85036100a95760006100ac565b60015b905060006040518060400160405280600481526020017f44617461000000000000000000000000000000000000000000000000000000008152509050816000548294509450945050509193909250565b6000819050919050565b61010f816100fc565b82525050565b600060208201905061012a6000830184610106565b92915050565b600080fd5b61013e816100fc565b811461014957600080fd5b50565b60008135905061015b81610135565b92915050565b60006020828403121561017757610176610130565b5b60006101858482850161014c565b91505092915050565b60008115159050919050565b6101a38161018e565b82525050565b600081519050919050565b600082825260208201905092915050565b60005b838110156101e35780820151818401526020810190506101c8565b60008484015250505050565b6000601f19601f8301169050919050565b600061020b826101a9565b61021581856101b4565b93506102258185602086016101c5565b61022e816101ef565b840191505092915050565b600060608201905061024e600083018661019a565b61025b6020830185610106565b818103604083015261026d8184610200565b905094935050505056fea26469706673582212204e73032b1507b96aaefdea900e4123815d4b3c28cf76c4fdd0d5ad6586c978d364736f6c63430008190033",
  "linkReferences": {},
  "deployedLinkReferences": {}
}