{
  "contractName": "Election",
  "abi": [
    {
      "inputs": [
        {
          "internalType": "string",
          "name": "_electionId",
          "type": "string"
        },
        {
          "internalType": "string",
          "name": "_data",
          "type": "string"
        }
      ],
      "stateMutability": "nonpayable",
      "type": "constructor"
    },
    {
      "inputs": [
        {
          "internalType": "uint256",
          "name": "",
          "type": "uint256"
        }
      ],
      "name": "blockchain",
      "outputs": [
        {
          "internalType": "uint256",
          "name": "index",
          "type": "uint256"
        },
        {
          "internalType": "string",
          "name": "electionId",
          "type": "string"
        },
        {
          "internalType": "bytes32",
          "name": "hash",
          "type": "bytes32"
        },
        {
          "internalType": "bytes32",
          "name": "previousHash",
          "type": "bytes32"
        },
        {
          "internalType": "string",
          "name": "data",
          "type": "string"
        },
        {
          "internalType": "uint256",
          "name": "timestamp",
          "type": "uint256"
        }
      ],
      "stateMutability": "view",
      "type": "function"
    }
  ],
  "bytecode": "0x608060405234801562000010575f80fd5b5060405162000b2738038062000b278339818101604052810190620000369190620002d2565b5f805f1b90505f4290505f620000555f8486856200011360201b60201c565b90505f6040518060c001604052805f81526020018781526020018381526020018581526020018681526020018481525090505f81908060018154018082558091505060019003905f5260205f2090600602015f909190919091505f820151815f01556020820151816001019081620000ce91906200058c565b5060408201518160020155606082015181600301556080820151816004019081620000fa91906200058c565b5060a08201518160050155505050505050505062000752565b5f848484846040516020016200012d949392919062000701565b604051602081830303815290604052805190602001209050949350505050565b5f604051905090565b5f80fd5b5f80fd5b5f80fd5b5f80fd5b5f601f19601f8301169050919050565b7f4e487b71000000000000000000000000000000000000000000000000000000005f52604160045260245ffd5b620001ae8262000166565b810181811067ffffffffffffffff82111715620001d057620001cf62000176565b5b80604052505050565b5f620001e46200014d565b9050620001f28282620001a3565b919050565b5f67ffffffffffffffff82111562000214576200021362000176565b5b6200021f8262000166565b9050602081019050919050565b5f5b838110156200024b5780820151818401526020810190506200022e565b5f8484015250505050565b5f6200026c6200026684620001f7565b620001d9565b9050828152602081018484840111156200028b576200028a62000162565b5b620002988482856200022c565b509392505050565b5f82601f830112620002b757620002b66200015e565b5b8151620002c984826020860162000256565b91505092915050565b5f8060408385031215620002eb57620002ea62000156565b5b5f83015167ffffffffffffffff8111156200030b576200030a6200015a565b5b6200031985828601620002a0565b925050602083015167ffffffffffffffff8111156200033d576200033c6200015a565b5b6200034b85828601620002a0565b9150509250929050565b5f81519050919050565b7f4e487b71000000000000000000000000000000000000000000000000000000005f52602260045260245ffd5b5f6002820490506001821680620003a457607f821691505b602082108103620003ba57620003b96200035f565b5b50919050565b5f819050815f5260205f209050919050565b5f6020601f8301049050919050565b5f82821b905092915050565b5f600883026200041e7fffffffffffffffffffffffffffffffffffffffffffffffffffffffffffffffff82620003e1565b6200042a8683620003e1565b95508019841693508086168417925050509392505050565b5f819050919050565b5f819050919050565b5f620004746200046e620004688462000442565b6200044b565b62000442565b9050919050565b5f819050919050565b6200048f8362000454565b620004a76200049e826200047b565b848454620003ed565b825550505050565b5f90565b620004bd620004af565b620004ca81848462000484565b505050565b5b81811015620004f157620004e55f82620004b3565b600181019050620004d0565b5050565b601f82111562000540576200050a81620003c0565b6200051584620003d2565b8101602085101562000525578190505b6200053d6200053485620003d2565b830182620004cf565b50505b505050565b5f82821c905092915050565b5f620005625f198460080262000545565b1980831691505092915050565b5f6200057c838362000551565b9150826002028217905092915050565b620005978262000355565b67ffffffffffffffff811115620005b357620005b262000176565b5b620005bf82546200038c565b620005cc828285620004f5565b5f60209050601f83116001811462000602575f8415620005ed578287015190505b620005f985826200056f565b86555062000668565b601f1984166200061286620003c0565b5f5b828110156200063b5784890151825560018201915060208501945060208101905062000614565b868310156200065b578489015162000657601f89168262000551565b8355505b6001600288020188555050505b505050505050565b5f819050919050565b6200068e620006888262000442565b62000670565b82525050565b5f819050919050565b5f819050919050565b620006bb620006b58262000694565b6200069d565b82525050565b5f81905092915050565b5f620006d78262000355565b620006e38185620006c1565b9350620006f58185602086016200022c565b80840191505092915050565b5f6200070e828762000679565b602082019150620007208286620006a6565b602082019150620007328285620006cb565b915062000740828462000679565b60208201915081905095945050505050565b6103c780620007605f395ff3fe608060405234801561000f575f80fd5b5060043610610029575f3560e01c8063c25b1eaf1461002d575b5f80fd5b610047600480360381019061004291906101eb565b610062565b604051610059969594939291906102c7565b60405180910390f35b5f8181548110610070575f80fd5b905f5260205f2090600602015f91509050805f01549080600101805461009590610361565b80601f01602080910402602001604051908101604052809291908181526020018280546100c190610361565b801561010c5780601f106100e35761010080835404028352916020019161010c565b820191905f5260205f20905b8154815290600101906020018083116100ef57829003601f168201915b50505050509080600201549080600301549080600401805461012d90610361565b80601f016020809104026020016040519081016040528092919081815260200182805461015990610361565b80156101a45780601f1061017b576101008083540402835291602001916101a4565b820191905f5260205f20905b81548152906001019060200180831161018757829003601f168201915b5050505050908060050154905086565b5f80fd5b5f819050919050565b6101ca816101b8565b81146101d4575f80fd5b50565b5f813590506101e5816101c1565b92915050565b5f60208284031215610200576101ff6101b4565b5b5f61020d848285016101d7565b91505092915050565b61021f816101b8565b82525050565b5f81519050919050565b5f82825260208201905092915050565b5f5b8381101561025c578082015181840152602081019050610241565b5f8484015250505050565b5f601f19601f8301169050919050565b5f61028182610225565b61028b818561022f565b935061029b81856020860161023f565b6102a481610267565b840191505092915050565b5f819050919050565b6102c1816102af565b82525050565b5f60c0820190506102da5f830189610216565b81810360208301526102ec8188610277565b90506102fb60408301876102b8565b61030860608301866102b8565b818103608083015261031a8185610277565b905061032960a0830184610216565b979650505050505050565b7f4e487b71000000000000000000000000000000000000000000000000000000005f52602260045260245ffd5b5f600282049050600182168061037857607f821691505b60208210810361038b5761038a610334565b5b5091905056fea2646970667358221220094c3720296ca2498d296c25700ecd66cd2b8ed558d196793495c07863e8a1d564736f6c63430008150033",
  "immutableReferences": {},
  "source": "pragma solidity >=0.8.0 <0.9.0;\n\n// SPDX-License-Identifier: UNLICENSED\n\n /**\n   * @title Election\n   * @dev ContractDescription\n   * @custom:dev-run-script election_init.sol\n   */\n\n//2. each Election contract means a new election\ncontract Election {\n\n    struct Block {\n        uint index;     //index of the block - 0 for genesis block\n        string electionId;  //identifier of the current election\n        bytes32 hash;    //hash of the block data - for integrity and immutability\n        bytes32 previousHash; //hash of the previous block\n        string data;   //information about the election (name, candidates, rules, etc.)\n        uint timestamp;\n    }\n\n    //array of blocks\n    Block[] public blockchain;\n\n    function generateHash(uint index, bytes32 previousHash, string memory data, uint timestamp) private pure returns(bytes32) { \n        //keep bytes32 to be more gas efficient\n        return keccak256(abi.encodePacked(index, previousHash, data, timestamp));\n    }\n\n    //constructor\n    constructor(string memory _electionId, string memory _data) { //using _electionId instead of electionId because _electionId is a local variable\n        //2.1 create genesis block and put it as a first block on the blockchain\n        bytes32 previousHash = 0x0; //since there's no previous block\n        uint timestamp = block.timestamp; //current time\n        bytes32 hash = generateHash(0, previousHash, _data, timestamp);\n\n\n        Block memory genesisBlock = Block(0, _electionId, hash, previousHash, _data, timestamp);\n        blockchain.push(genesisBlock); \n    }\n}",
  "sourcePath": "/Users/anet/dynamic-evoting/contracts/election_init.sol",
  "compiler": {
    "name": "solc",
    "version": "0.8.21+commit.d9974bed.Emscripten.clang"
  },
  "schemaVersion": "3.4.16",
  "updatedAt": "2024-04-04T22:19:11.764Z",
  "devdoc": {
    "custom:dev-run-script": "election_init.sol",
    "details": "ContractDescription",
    "kind": "dev",
    "methods": {},
    "title": "Election",
    "version": 1
  },
  "userdoc": {
    "kind": "user",
    "methods": {},
    "version": 1
  }
}