{
  "contractName": "SubmitVote",
  "abi": [
    {
      "anonymous": false,
      "inputs": [
        {
          "indexed": false,
          "internalType": "address",
          "name": "voter",
          "type": "address"
        }
      ],
      "name": "VoteAltered",
      "type": "event"
    },
    {
      "inputs": [
        {
          "internalType": "uint256",
          "name": "",
          "type": "uint256"
        }
      ],
      "name": "blindedChoices",
      "outputs": [
        {
          "internalType": "bytes32",
          "name": "blindedVote",
          "type": "bytes32"
        },
        {
          "internalType": "uint256",
          "name": "timestamp",
          "type": "uint256"
        },
        {
          "internalType": "uint256",
          "name": "nftTokenId",
          "type": "uint256"
        }
      ],
      "stateMutability": "view",
      "type": "function"
    },
    {
      "inputs": [],
      "name": "nft",
      "outputs": [
        {
          "internalType": "contract IERC721",
          "name": "",
          "type": "address"
        }
      ],
      "stateMutability": "view",
      "type": "function"
    },
    {
      "inputs": [
        {
          "internalType": "uint256",
          "name": "",
          "type": "uint256"
        },
        {
          "internalType": "uint256",
          "name": "",
          "type": "uint256"
        }
      ],
      "name": "votes",
      "outputs": [
        {
          "internalType": "uint256",
          "name": "timestamp",
          "type": "uint256"
        },
        {
          "internalType": "string",
          "name": "choice",
          "type": "string"
        },
        {
          "internalType": "uint256",
          "name": "tokenId",
          "type": "uint256"
        },
        {
          "internalType": "bool",
          "name": "isOriginalVote",
          "type": "bool"
        },
        {
          "internalType": "string",
          "name": "alterationVote",
          "type": "string"
        }
      ],
      "stateMutability": "view",
      "type": "function"
    },
    {
      "inputs": [
        {
          "internalType": "string",
          "name": "blindedChoice",
          "type": "string"
        },
        {
          "internalType": "uint256",
          "name": "tokenId",
          "type": "uint256"
        }
      ],
      "name": "submitComittment",
      "outputs": [],
      "stateMutability": "nonpayable",
      "type": "function"
    },
    {
      "inputs": [
        {
          "internalType": "string",
          "name": "choice",
          "type": "string"
        },
        {
          "internalType": "uint256",
          "name": "tokenId",
          "type": "uint256"
        }
      ],
      "name": "verifyVote",
      "outputs": [],
      "stateMutability": "nonpayable",
      "type": "function"
    },
    {
      "inputs": [
        {
          "internalType": "string",
          "name": "originalVote",
          "type": "string"
        },
        {
          "internalType": "uint256",
          "name": "tokenId",
          "type": "uint256"
        }
      ],
      "name": "requestAlteration",
      "outputs": [],
      "stateMutability": "nonpayable",
      "type": "function"
    },
    {
      "inputs": [
        {
          "internalType": "string",
          "name": "alterationChoice",
          "type": "string"
        },
        {
          "internalType": "uint256",
          "name": "tokenId",
          "type": "uint256"
        }
      ],
      "name": "verifyAlteration",
      "outputs": [],
      "stateMutability": "nonpayable",
      "type": "function"
    },
    {
      "inputs": [
        {
          "internalType": "bytes32",
          "name": "origVoteHash",
          "type": "bytes32"
        },
        {
          "internalType": "uint256",
          "name": "tokenId",
          "type": "uint256"
        }
      ],
      "name": "submitOriginalVoteHash",
      "outputs": [
        {
          "internalType": "bool",
          "name": "",
          "type": "bool"
        }
      ],
      "stateMutability": "view",
      "type": "function"
    },
    {
      "inputs": [
        {
          "internalType": "uint256",
          "name": "tokenId",
          "type": "uint256"
        }
      ],
      "name": "getVotes",
      "outputs": [
        {
          "components": [
            {
              "internalType": "uint256",
              "name": "timestamp",
              "type": "uint256"
            },
            {
              "internalType": "string",
              "name": "choice",
              "type": "string"
            },
            {
              "internalType": "uint256",
              "name": "tokenId",
              "type": "uint256"
            },
            {
              "internalType": "bool",
              "name": "isOriginalVote",
              "type": "bool"
            },
            {
              "internalType": "string",
              "name": "alterationVote",
              "type": "string"
            }
          ],
          "internalType": "struct SubmitVote.Vote[]",
          "name": "",
          "type": "tuple[]"
        }
      ],
      "stateMutability": "view",
      "type": "function"
    },
    {
      "inputs": [
        {
          "internalType": "uint256",
          "name": "tokenId",
          "type": "uint256"
        }
      ],
      "name": "getLatestVote",
      "outputs": [
        {
          "components": [
            {
              "internalType": "uint256",
              "name": "timestamp",
              "type": "uint256"
            },
            {
              "internalType": "string",
              "name": "choice",
              "type": "string"
            },
            {
              "internalType": "uint256",
              "name": "tokenId",
              "type": "uint256"
            },
            {
              "internalType": "bool",
              "name": "isOriginalVote",
              "type": "bool"
            },
            {
              "internalType": "string",
              "name": "alterationVote",
              "type": "string"
            }
          ],
          "internalType": "struct SubmitVote.Vote",
          "name": "",
          "type": "tuple"
        }
      ],
      "stateMutability": "view",
      "type": "function"
    },
    {
      "inputs": [
        {
          "internalType": "uint256",
          "name": "tokenId",
          "type": "uint256"
        }
      ],
      "name": "getOriginalVote",
      "outputs": [
        {
          "components": [
            {
              "internalType": "uint256",
              "name": "timestamp",
              "type": "uint256"
            },
            {
              "internalType": "string",
              "name": "choice",
              "type": "string"
            },
            {
              "internalType": "uint256",
              "name": "tokenId",
              "type": "uint256"
            },
            {
              "internalType": "bool",
              "name": "isOriginalVote",
              "type": "bool"
            },
            {
              "internalType": "string",
              "name": "alterationVote",
              "type": "string"
            }
          ],
          "internalType": "struct SubmitVote.Vote",
          "name": "",
          "type": "tuple"
        }
      ],
      "stateMutability": "view",
      "type": "function"
    }
  ],
  "bytecode": "0x608060405234801561000f575f80fd5b506121948061001d5f395ff3fe608060405234801561000f575f80fd5b50600436106100a7575f3560e01c8063ac9197951161006f578063ac91979514610175578063c6e36a3214610191578063cadc2661146101c5578063eb797922146101e1578063f5c9563c146101fd578063ff9810991461022f576100a7565b80632afb3ecb146100ab57806347ccca02146100db578063700dbcf0146100f957806371500d73146101295780637445fb4614610145575b5f80fd5b6100c560048036038101906100c091906113f8565b61025f565b6040516100d29190611450565b60405180910390f35b6100e361042b565b6040516100f091906114e3565b60405180910390f35b610113600480360381019061010e91906114fc565b61044e565b6040516101209190611649565b60405180910390f35b610143600480360381019061013e9190611795565b61063a565b005b61015f600480360381019061015a91906114fc565b6107b6565b60405161016c9190611649565b60405180910390f35b61018f600480360381019061018a9190611795565b6109c2565b005b6101ab60048036038101906101a691906117ef565b610c18565b6040516101bc959493929190611884565b60405180910390f35b6101df60048036038101906101da9190611795565b610d7c565b005b6101fb60048036038101906101f69190611795565b610ef5565b005b610217600480360381019061021291906114fc565b611173565b604051610226939291906118f2565b60405180910390f35b610249600480360381019061024491906114fc565b611199565b6040516102569190611a5c565b60405180910390f35b5f3373ffffffffffffffffffffffffffffffffffffffff165f8054906101000a900473ffffffffffffffffffffffffffffffffffffffff1673ffffffffffffffffffffffffffffffffffffffff16636352211e846040518263ffffffff1660e01b81526004016102cf9190611a7c565b602060405180830381865afa1580156102ea573d5f803e3d5ffd5b505050506040513d601f19601f8201168201806040525081019061030e9190611ad0565b73ffffffffffffffffffffffffffffffffffffffff1614610364576040517f08c379a000000000000000000000000000000000000000000000000000000000815260040161035b90611b45565b60405180910390fd5b5f60025f8481526020019081526020015f2080549050116103ba576040517f08c379a00000000000000000000000000000000000000000000000000000000081526004016103b190611bad565b60405180910390fd5b60025f8381526020019081526020015f205f815481106103dd576103dc611bcb565b5b905f5260205f2090600502016001016040516020016103fc9190611cf1565b6040516020818303038152906040528051906020012083036104215760019050610425565b5f90505b92915050565b5f8054906101000a900473ffffffffffffffffffffffffffffffffffffffff1681565b610456611353565b5f60025f8481526020019081526020015f2080549050116104ac576040517f08c379a00000000000000000000000000000000000000000000000000000000081526004016104a390611d51565b60405180910390fd5b60025f8381526020019081526020015f205f815481106104cf576104ce611bcb565b5b905f5260205f2090600502016040518060a00160405290815f82015481526020016001820180546104ff90611c25565b80601f016020809104026020016040519081016040528092919081815260200182805461052b90611c25565b80156105765780601f1061054d57610100808354040283529160200191610576565b820191905f5260205f20905b81548152906001019060200180831161055957829003601f168201915b5050505050815260200160028201548152602001600382015f9054906101000a900460ff161515151581526020016004820180546105b390611c25565b80601f01602080910402602001604051908101604052809291908181526020018280546105df90611c25565b801561062a5780601f106106015761010080835404028352916020019161062a565b820191905f5260205f20905b81548152906001019060200180831161060d57829003601f168201915b5050505050815250509050919050565b3373ffffffffffffffffffffffffffffffffffffffff165f8054906101000a900473ffffffffffffffffffffffffffffffffffffffff1673ffffffffffffffffffffffffffffffffffffffff16636352211e836040518263ffffffff1660e01b81526004016106a99190611a7c565b602060405180830381865afa1580156106c4573d5f803e3d5ffd5b505050506040513d601f19601f820116820180604052508101906106e89190611ad0565b73ffffffffffffffffffffffffffffffffffffffff161461073e576040517f08c379a000000000000000000000000000000000000000000000000000000000815260040161073590611b45565b60405180910390fd5b5f826040516020016107509190611d9f565b604051602081830303815290604052805190602001209050610772818361025f565b6107b1576040517f08c379a00000000000000000000000000000000000000000000000000000000081526004016107a890611dff565b60405180910390fd5b505050565b6107be611353565b5f60025f8481526020019081526020015f208054905011610814576040517f08c379a000000000000000000000000000000000000000000000000000000000815260040161080b90611d51565b60405180910390fd5b60025f8381526020019081526020015f20600160025f8581526020019081526020015f20805490506108469190611e4a565b8154811061085757610856611bcb565b5b905f5260205f2090600502016040518060a00160405290815f820154815260200160018201805461088790611c25565b80601f01602080910402602001604051908101604052809291908181526020018280546108b390611c25565b80156108fe5780601f106108d5576101008083540402835291602001916108fe565b820191905f5260205f20905b8154815290600101906020018083116108e157829003601f168201915b5050505050815260200160028201548152602001600382015f9054906101000a900460ff1615151515815260200160048201805461093b90611c25565b80601f016020809104026020016040519081016040528092919081815260200182805461096790611c25565b80156109b25780601f10610989576101008083540402835291602001916109b2565b820191905f5260205f20905b81548152906001019060200180831161099557829003601f168201915b5050505050815250509050919050565b3373ffffffffffffffffffffffffffffffffffffffff165f8054906101000a900473ffffffffffffffffffffffffffffffffffffffff1673ffffffffffffffffffffffffffffffffffffffff16636352211e836040518263ffffffff1660e01b8152600401610a319190611a7c565b602060405180830381865afa158015610a4c573d5f803e3d5ffd5b505050506040513d601f19601f82011682018060405250810190610a709190611ad0565b73ffffffffffffffffffffffffffffffffffffffff1614610ac6576040517f08c379a0000000000000000000000000000000000000000000000000000000008152600401610abd90611b45565b60405180910390fd5b81604051602001610ad79190611d9f565b6040516020818303038152906040528051906020012060015f8381526020019081526020015f205f015414610b41576040517f08c379a0000000000000000000000000000000000000000000000000000000008152600401610b3890611ec7565b60405180910390fd5b5f6040518060a0016040528042815260200184815260200183815260200160011515815260200160405180602001604052805f815250815250905060025f8381526020019081526020015f2081908060018154018082558091505060019003905f5260205f2090600502015f909190919091505f820151815f01556020820151816001019081610bd19190612067565b50604082015181600201556060820151816003015f6101000a81548160ff0219169083151502179055506080820151816004019081610c109190612067565b505050505050565b6002602052815f5260405f208181548110610c31575f80fd5b905f5260205f2090600502015f9150915050805f015490806001018054610c5790611c25565b80601f0160208091040260200160405190810160405280929190818152602001828054610c8390611c25565b8015610cce5780601f10610ca557610100808354040283529160200191610cce565b820191905f5260205f20905b815481529060010190602001808311610cb157829003601f168201915b505050505090806002015490806003015f9054906101000a900460ff1690806004018054610cfb90611c25565b80601f0160208091040260200160405190810160405280929190818152602001828054610d2790611c25565b8015610d725780601f10610d4957610100808354040283529160200191610d72565b820191905f5260205f20905b815481529060010190602001808311610d5557829003601f168201915b5050505050905085565b3373ffffffffffffffffffffffffffffffffffffffff165f8054906101000a900473ffffffffffffffffffffffffffffffffffffffff1673ffffffffffffffffffffffffffffffffffffffff16636352211e836040518263ffffffff1660e01b8152600401610deb9190611a7c565b602060405180830381865afa158015610e06573d5f803e3d5ffd5b505050506040513d601f19601f82011682018060405250810190610e2a9190611ad0565b73ffffffffffffffffffffffffffffffffffffffff1614610e80576040517f08c379a0000000000000000000000000000000000000000000000000000000008152600401610e7790611b45565b60405180910390fd5b604051806060016040528083604051602001610e9c9190611d9f565b6040516020818303038152906040528051906020012081526020014281526020018281525060015f8381526020019081526020015f205f820151815f015560208201518160010155604082015181600201559050505050565b3373ffffffffffffffffffffffffffffffffffffffff165f8054906101000a900473ffffffffffffffffffffffffffffffffffffffff1673ffffffffffffffffffffffffffffffffffffffff16636352211e836040518263ffffffff1660e01b8152600401610f649190611a7c565b602060405180830381865afa158015610f7f573d5f803e3d5ffd5b505050506040513d601f19601f82011682018060405250810190610fa39190611ad0565b73ffffffffffffffffffffffffffffffffffffffff1614610ff9576040517f08c379a0000000000000000000000000000000000000000000000000000000008152600401610ff090611b45565b60405180910390fd5b8160405160200161100a9190611d9f565b6040516020818303038152906040528051906020012060015f8381526020019081526020015f205f015414611074576040517f08c379a000000000000000000000000000000000000000000000000000000000815260040161106b90611ec7565b60405180910390fd5b5f6040518060a001604052804281526020018481526020018381526020015f1515815260200184815250905060025f8381526020019081526020015f2081908060018154018082558091505060019003905f5260205f2090600502015f909190919091505f820151815f015560208201518160010190816110f59190612067565b50604082015181600201556060820151816003015f6101000a81548160ff02191690831515021790555060808201518160040190816111349190612067565b5050507f59e081519b00c1738309944946237a3845b298c5d7503717e235d2f674ae2698336040516111669190612145565b60405180910390a1505050565b6001602052805f5260405f205f91509050805f0154908060010154908060020154905083565b606060025f8381526020019081526020015f20805480602002602001604051908101604052809291908181526020015f905b82821015611348578382905f5260205f2090600502016040518060a00160405290815f820154815260200160018201805461120590611c25565b80601f016020809104026020016040519081016040528092919081815260200182805461123190611c25565b801561127c5780601f106112535761010080835404028352916020019161127c565b820191905f5260205f20905b81548152906001019060200180831161125f57829003601f168201915b5050505050815260200160028201548152602001600382015f9054906101000a900460ff161515151581526020016004820180546112b990611c25565b80601f01602080910402602001604051908101604052809291908181526020018280546112e590611c25565b80156113305780601f1061130757610100808354040283529160200191611330565b820191905f5260205f20905b81548152906001019060200180831161131357829003601f168201915b505050505081525050815260200190600101906111cb565b505050509050919050565b6040518060a001604052805f8152602001606081526020015f81526020015f15158152602001606081525090565b5f604051905090565b5f80fd5b5f80fd5b5f819050919050565b6113a481611392565b81146113ae575f80fd5b50565b5f813590506113bf8161139b565b92915050565b5f819050919050565b6113d7816113c5565b81146113e1575f80fd5b50565b5f813590506113f2816113ce565b92915050565b5f806040838503121561140e5761140d61138a565b5b5f61141b858286016113b1565b925050602061142c858286016113e4565b9150509250929050565b5f8115159050919050565b61144a81611436565b82525050565b5f6020820190506114635f830184611441565b92915050565b5f73ffffffffffffffffffffffffffffffffffffffff82169050919050565b5f819050919050565b5f6114ab6114a66114a184611469565b611488565b611469565b9050919050565b5f6114bc82611491565b9050919050565b5f6114cd826114b2565b9050919050565b6114dd816114c3565b82525050565b5f6020820190506114f65f8301846114d4565b92915050565b5f602082840312156115115761151061138a565b5b5f61151e848285016113e4565b91505092915050565b611530816113c5565b82525050565b5f81519050919050565b5f82825260208201905092915050565b5f5b8381101561156d578082015181840152602081019050611552565b5f8484015250505050565b5f601f19601f8301169050919050565b5f61159282611536565b61159c8185611540565b93506115ac818560208601611550565b6115b581611578565b840191505092915050565b6115c981611436565b82525050565b5f60a083015f8301516115e45f860182611527565b50602083015184820360208601526115fc8282611588565b91505060408301516116116040860182611527565b50606083015161162460608601826115c0565b506080830151848203608086015261163c8282611588565b9150508091505092915050565b5f6020820190508181035f83015261166181846115cf565b905092915050565b5f80fd5b5f80fd5b7f4e487b71000000000000000000000000000000000000000000000000000000005f52604160045260245ffd5b6116a782611578565b810181811067ffffffffffffffff821117156116c6576116c5611671565b5b80604052505050565b5f6116d8611381565b90506116e4828261169e565b919050565b5f67ffffffffffffffff82111561170357611702611671565b5b61170c82611578565b9050602081019050919050565b828183375f83830152505050565b5f611739611734846116e9565b6116cf565b9050828152602081018484840111156117555761175461166d565b5b611760848285611719565b509392505050565b5f82601f83011261177c5761177b611669565b5b813561178c848260208601611727565b91505092915050565b5f80604083850312156117ab576117aa61138a565b5b5f83013567ffffffffffffffff8111156117c8576117c761138e565b5b6117d485828601611768565b92505060206117e5858286016113e4565b9150509250929050565b5f80604083850312156118055761180461138a565b5b5f611812858286016113e4565b9250506020611823858286016113e4565b9150509250929050565b611836816113c5565b82525050565b5f82825260208201905092915050565b5f61185682611536565b611860818561183c565b9350611870818560208601611550565b61187981611578565b840191505092915050565b5f60a0820190506118975f83018861182d565b81810360208301526118a9818761184c565b90506118b8604083018661182d565b6118c56060830185611441565b81810360808301526118d7818461184c565b90509695505050505050565b6118ec81611392565b82525050565b5f6060820190506119055f8301866118e3565b611912602083018561182d565b61191f604083018461182d565b949350505050565b5f81519050919050565b5f82825260208201905092915050565b5f819050602082019050919050565b5f60a083015f8301516119655f860182611527565b506020830151848203602086015261197d8282611588565b91505060408301516119926040860182611527565b5060608301516119a560608601826115c0565b50608083015184820360808601526119bd8282611588565b9150508091505092915050565b5f6119d58383611950565b905092915050565b5f602082019050919050565b5f6119f382611927565b6119fd8185611931565b935083602082028501611a0f85611941565b805f5b85811015611a4a5784840389528151611a2b85826119ca565b9450611a36836119dd565b925060208a01995050600181019050611a12565b50829750879550505050505092915050565b5f6020820190508181035f830152611a7481846119e9565b905092915050565b5f602082019050611a8f5f83018461182d565b92915050565b5f611a9f82611469565b9050919050565b611aaf81611a95565b8114611ab9575f80fd5b50565b5f81519050611aca81611aa6565b92915050565b5f60208284031215611ae557611ae461138a565b5b5f611af284828501611abc565b91505092915050565b7f556e617574686f726973656420616363657373000000000000000000000000005f82015250565b5f611b2f60138361183c565b9150611b3a82611afb565b602082019050919050565b5f6020820190508181035f830152611b5c81611b23565b9050919050565b7f48617665206e6f7420766f746564206265666f726500000000000000000000005f82015250565b5f611b9760158361183c565b9150611ba282611b63565b602082019050919050565b5f6020820190508181035f830152611bc481611b8b565b9050919050565b7f4e487b71000000000000000000000000000000000000000000000000000000005f52603260045260245ffd5b7f4e487b71000000000000000000000000000000000000000000000000000000005f52602260045260245ffd5b5f6002820490506001821680611c3c57607f821691505b602082108103611c4f57611c4e611bf8565b5b50919050565b5f81905092915050565b5f819050815f5260205f209050919050565b5f8154611c7d81611c25565b611c878186611c55565b9450600182165f8114611ca15760018114611cb657611ce8565b60ff1983168652811515820286019350611ce8565b611cbf85611c5f565b5f5b83811015611ce057815481890152600182019150602081019050611cc1565b838801955050505b50505092915050565b5f611cfc8284611c71565b915081905092915050565b7f4e6f20766f74657320666f756e6420666f72207468697320746f6b656e0000005f82015250565b5f611d3b601d8361183c565b9150611d4682611d07565b602082019050919050565b5f6020820190508181035f830152611d6881611d2f565b9050919050565b5f611d7982611536565b611d838185611c55565b9350611d93818560208601611550565b80840191505092915050565b5f611daa8284611d6f565b915081905092915050565b7f496e76616c69642070726f6f66000000000000000000000000000000000000005f82015250565b5f611de9600d8361183c565b9150611df482611db5565b602082019050919050565b5f6020820190508181035f830152611e1681611ddd565b9050919050565b7f4e487b71000000000000000000000000000000000000000000000000000000005f52601160045260245ffd5b5f611e54826113c5565b9150611e5f836113c5565b9250828203905081811115611e7757611e76611e1d565b5b92915050565b7f496e76616c696420766f746500000000000000000000000000000000000000005f82015250565b5f611eb1600c8361183c565b9150611ebc82611e7d565b602082019050919050565b5f6020820190508181035f830152611ede81611ea5565b9050919050565b5f6020601f8301049050919050565b5f82821b905092915050565b5f60088302611f2f7fffffffffffffffffffffffffffffffffffffffffffffffffffffffffffffffff82611ef4565b611f398683611ef4565b95508019841693508086168417925050509392505050565b5f611f6b611f66611f61846113c5565b611488565b6113c5565b9050919050565b5f819050919050565b611f8483611f51565b611f98611f9082611f72565b848454611f00565b825550505050565b5f90565b611fac611fa0565b611fb7818484611f7b565b505050565b5b81811015611fda57611fcf5f82611fa4565b600181019050611fbd565b5050565b601f82111561201f57611ff081611c5f565b611ff984611ee5565b81016020851015612008578190505b61201c61201485611ee5565b830182611fbc565b50505b505050565b5f82821c905092915050565b5f61203f5f1984600802612024565b1980831691505092915050565b5f6120578383612030565b9150826002028217905092915050565b61207082611536565b67ffffffffffffffff81111561208957612088611671565b5b6120938254611c25565b61209e828285611fde565b5f60209050601f8311600181146120cf575f84156120bd578287015190505b6120c7858261204c565b86555061212e565b601f1984166120dd86611c5f565b5f5b82811015612104578489015182556001820191506020850194506020810190506120df565b86831015612121578489015161211d601f891682612030565b8355505b6001600288020188555050505b505050505050565b61213f81611a95565b82525050565b5f6020820190506121585f830184612136565b9291505056fea264697066735822122083c73ccfe43d73c2d56a1fb4c4ce813bba797f2354bae6e56758cde9bb4fec1164736f6c63430008150033",
  "immutableReferences": {},
  "source": "//steps\n//5a.1 user sends encrypted choice to the transaction together with NFT token\n//5a.2 smart contract stores the pair (choice, NFT token) in the list of committments\n//5b.1.1 user sends a ballot with the NFT token and the choice (not encrypted)\n//5b.1.1.1 smart contract check if the NFT token is valid, then proceed with 5b.1.2\n//5b.1.1.2 if the token is invalid then \"Unauthorised access\"\n//5b.1.2 smart contract accepts the ballot\n//5b.2 smart contract verifies the choice: by matching the encrypted choice with the choice on the ballot\n//5b.2.1 if the choices match, then store the pair\n//5b.2.3 if the choices do not match, then \"Invalid vote\"\n//6a user upploads the ballot on the blockchain in a transaction, and smart contract stores the submitted ballot - linked list now\n//alteration\n//6b.1.1 user proves their original vote - by sending hash of the original ballot to the smart contract\n//6b.1.2.1 smart contract checks if the hash is in the list of ballots\n//6b.1.2.3 if the hash is not in the list, then \"Invalid proof\"\n//6b.1.3 if the hash is in the list, then the smart contract accepts the proof, and user is permitted to submit alteration\n//6b.1.4 the user then does steps similar to 5a.1-5b.2, but altered choice is uploaded ona subchain under the original vote as header (instead of 6a)\n//6b.1.5 smart contract stores the altered vote\n//6b.1.6 smart contract stores the proof of alteration\n\n\npragma solidity >=0.8.0 <0.9.0;\n\n// SPDX-License-Identifier: UNLICENSED\n\nimport \"@openzeppelin/contracts/token/ERC721/IERC721.sol\";\n\ncontract SubmitVote {\n    IERC721 public nft;\n    //constructor(address _nft) {\n    //    nft = IERC721(_nft);\n    //}\n\n    struct Vote{\n        uint256 timestamp;\n        string choice;\n        uint256 tokenId;\n        bool isOriginalVote;\n        string alterationVote;\n    }\n\n    struct BlindedVote {\n        bytes32 blindedVote; //encrypted choice\n        uint256 timestamp;\n        uint256 nftTokenId;\n    }\n\n    mapping(uint256 => BlindedVote) public blindedChoices;\n    mapping(uint256 => Vote[]) public votes;\n\n    event VoteAltered(address voter);\n\n    //submit blinded vote - submit the committment\n    function submitComittment(string memory blindedChoice, uint256 tokenId) public {\n        require(nft.ownerOf(tokenId) == msg.sender, \"Unauthorised access\");\n            \n            //5a.2 smart contract stores the pair (choice, NFT token) in the list of committments\n            //store the blinded choice\n            blindedChoices[tokenId] = BlindedVote({\n                blindedVote: keccak256(abi.encodePacked(blindedChoice)),\n                timestamp: block.timestamp,\n                nftTokenId: tokenId\n            });\n    }\n\n    //submit unblinded vote\n    function verifyVote(string memory choice, uint256 tokenId) public {\n        //5b.1.1.1 smart contract check if the NFT token is valid, then proceed with 5b.1.2\n        require(nft.ownerOf(tokenId) == msg.sender, \"Unauthorised access\"); //5b.1.1.2 if the token is invalid then \"Unauthorised access\"\n\n         //5b.2 verifies the ballot by matching the choice with the blinded choice - the reveal phase\n        require(blindedChoices[tokenId].blindedVote == keccak256(abi.encodePacked(choice)), \"Invalid vote\");\n\n        //if they match then create a Vote, and if it's the first for that NFT mark is as isOriginal, while alterationVote is empty for now\n        Vote memory vote = Vote({\n            timestamp: block.timestamp,\n            choice: choice,\n            tokenId: tokenId,\n            isOriginalVote: true,\n            alterationVote: \"\"\n        });\n        \n        //store the vote pair, vote + token\n        votes[tokenId].push(vote);\n    }\n\n    //submit altered vote\n    function requestAlteration(string memory originalVote, uint256 tokenId) public {\n        //check nft ownership\n        require(nft.ownerOf(tokenId) == msg.sender, \"Unauthorised access\");\n\n        //verify original vote\n        bytes32 originalVoteHash = keccak256(abi.encodePacked(originalVote));\n        require(submitOriginalVoteHash(originalVoteHash, tokenId), \"Invalid proof\" ); //original vote was not verified\n    }\n\n\n    function verifyAlteration(string memory alterationChoice, uint256 tokenId) public {\n\n        require(nft.ownerOf(tokenId) == msg.sender, \"Unauthorised access\"); \n\n        require(blindedChoices[tokenId].blindedVote == keccak256(abi.encodePacked(alterationChoice)), \"Invalid vote\");\n\n        //create new altered vote\n        Vote memory vote = Vote({\n            timestamp: block.timestamp,\n            choice: alterationChoice,\n            tokenId: tokenId,\n            isOriginalVote: false,\n            alterationVote: alterationChoice\n        });\n\n        //store the altered vote, associated with the nft, but without removing the original vote\n        votes[tokenId].push(vote);\n\n        //let user know the vote was altered, while minimising linking to identity\n        emit VoteAltered(msg.sender);\n    }\n\n\n\n    function submitOriginalVoteHash(bytes32 origVoteHash, uint256 tokenId) public view returns(bool){\n        //check nft ownership\n        require(nft.ownerOf(tokenId) == msg.sender, \"Unauthorised access\");\n        //check if hasn't voted before\n        require(votes[tokenId].length > 0, \"Have not voted before\"); //no NFT associated found, so no original vote to alter\n\n        //check if the original vote is the same as the one stored\n        if (origVoteHash == keccak256(abi.encodePacked(votes[tokenId][0].choice))) {\n            return true;\n        }\n        return false;\n    }\n\n    //return all votes for a given token\n    function getVotes(uint256 tokenId) public view returns(Vote[] memory){\n        return votes[tokenId];\n    }\n\n    //return the latest alteration (latest vote for a given token)\n    function getLatestVote(uint256 tokenId) public view returns(Vote memory){\n        require(votes[tokenId].length > 0, \"No votes found for this token\");\n        return votes[tokenId][votes[tokenId].length - 1];\n    }\n\n    //returns the original vote for a given token\n    function getOriginalVote(uint256 tokenId) public view returns(Vote memory){\n        require(votes[tokenId].length > 0, \"No votes found for this token\");\n        return votes[tokenId][0];\n    }\n}\n",
  "sourcePath": "/Users/anet/dynamic-evoting/contracts/vote_2.sol",
  "compiler": {
    "name": "solc",
    "version": "0.8.21+commit.d9974bed.Emscripten.clang"
  },
  "schemaVersion": "3.4.16",
  "updatedAt": "2024-04-04T22:19:11.766Z",
  "devdoc": {
    "kind": "dev",
    "methods": {},
    "version": 1
  },
  "userdoc": {
    "kind": "user",
    "methods": {},
    "version": 1
  }
}